:0A0161000808010204081020408085
:0F014700C2B67F017E00120156D2B67F017E0044
:0B015600EF1FAC0670011E4C70F6227B
:04008F00AA07A9050E
:10009300E4FDE514C4131313540124FF92B4E514CF
:1000A30025E0F5141201470DBD08E7E4FDEBC41389
:1000B3001313540124FF92B4EB25E0FB1201470D07
:1000C300BD08EAE4FDEAC4131313540124FF92B4F8
:1000D300E925E0F91201470DBD08EAE4FDEAC4137E
:1000E3001313540124FF92B4EA25E0FA1201470DD9
:0A00F300BD08EAC2B5120152D2B5F1
:0100FD0022E0
:1000FE00E4F510E4F51074082510F8E6FFE4F514A5
:10010E00FBFD12008F7F507EC31201560510E510C5
:10011E00C3940840E1E4F510E510C3940850D4747C
:10012E00082510F8E6FDE4F514FBFF12008F7F5052
:09013E007EC3120156051080DF9A
:03000000020003F8
:0C000300787FE4F6D8FD75811402004AF5
:10000F000200FEE493A3F8E493A34003F68001F209
:10001F0008DFF48029E493A3F85407240CC8C333F2
:10002F00C4540F4420C8834004F456800146F6DFC1
:10003F00E4800B0102040810204080900161E47EEF
:10004F00019360BCA3FF543F30E509541FFEE493B6
:10005F00A360010ECF54C025E060A840B8E493A37D
:10006F00FAE493A3F8E493A3C8C582C8CAC583CAA8
:10007F00F0A3C8C582C8CAC583CADFE9DEE780BE60
:01016B000093
:00000001FF
