:0300D8000108809C
:0400C9007F017E0035
:0B00CD00EF1FAC0670011E4C70F62205
:02008F00AD07BB
:10009100E4FBEDC4131313540124FF92B4ED25E0E6
:1000A100FDC2B61200C9D2B61200C90BBB08E3C229
:0600B100B51200C9D2B532
:0100B7002226
:1000B800AF0812008F75807F7F507EC31200CD80FD
:0100C800EF48
:03000000020003F8
:0C000300787FE4F6D8FD75810802004A01
:10000F000200B8E493A3F8E493A34003F68001F24F
:10001F0008DFF48029E493A3F85407240CC8C333F2
:10002F00C4540F4420C8834004F456800146F6DFC1
:10003F00E4800B01020408102040809000D8E47E79
:10004F00019360BCA3FF543F30E509541FFEE493B6
:10005F00A360010ECF54C025E060A840B8E493A37D
:10006F00FAE493A3F8E493A3C8C582C8CAC583CAA8
:10007F00F0A3C8C582C8CAC583CADFE9DEE780BE60
:0100DB000024
:00000001FF
