:1000D7000810007E818181817E0008087FBFDFEFE5
:0400E700F7FBFDFE28
:0400EC007F017E0012
:0B00F000EF1FAC0670011E4C70F622E2
:02008F00AD07BB
:10009100E4FBEDC4131313540124FF92B4ED25E0E6
:1000A100FDC2B61200ECD2B61200EC0BBB08E3C2E3
:0600B100B51200ECD2B50F
:0100B7002226
:1000B800E4FA74082AF8E6F58074102AF8E6FF12C4
:0F00C800008F7F2C7E011200F00ABA08E580E15C
:03000000020003F8
:0C000300787FE4F6D8FD75811702004AF2
:10000F000200B8E493A3F8E493A34003F68001F24F
:10001F0008DFF48029E493A3F85407240CC8C333F2
:10002F00C4540F4420C8834004F456800146F6DFC1
:10003F00E4800B01020408102040809000D7E47E7A
:10004F00019360BCA3FF543F30E509541FFEE493B6
:10005F00A360010ECF54C025E060A840B8E493A37D
:10006F00FAE493A3F8E493A3C8C582C8CAC583CAA8
:10007F00F0A3C8C582C8CAC583CADFE9DEE780BE60
:0100EB000014
:00000001FF
