:1008A20011083F065B4F666D7D077F6F777C395E6F
:0308B20079710059
:0B08B600EF1FAC0670011E4C70F62214
:10088C00E4FD74082DF8E6F5807F207E4E1208B644
:06089C000DBD11EE80EA23
:03000000020800F3
:0C080000787FE4F6D8FD758118020847E7
:10080C0002088CE493A3F8E493A34003F68001F26E
:10081C0008DFF48029E493A3F85407240CC8C333ED
:10082C00C4540F4420C8834004F456800146F6DFBC
:10083C00E4800B01020408102040809008A2E47EA2
:10084C00019360BCA3FF543F30E509541FFEE493B1
:10085C00A360010ECF54C025E060A840B8E493A378
:10086C00FAE493A3F8E493A3C8C582C8CAC583CAA3
:10087C00F0A3C8C582C8CAC583CADFE9DEE780BE5B
:0108B5000042
:00000001FF
