:1009000011093F065B4F666D7D077F6F777C395E0F
:06091000797100010800EE
:0B092700EF1FAC0670011E4C70F622A2
:10088C0075900FE590640F60657FE87E0312092771
:10089C00E590640F605B75900FAF90EF24F56010DE
:1008AC0024FE601114601324077012750801800D6A
:1008BC00750802800875080380037508047590F0AC
:1008CC00AF90EF2450601124E0601124F0601124EB
:1008DC00707013850808800E7404800674088002FA
:1008EC00740C2508F508E59064F0600580F8E4F5D3
:0308FC0008AF083A
:0108FF0022D6
:10091700E4FF12088CEF60FA2408F8E6F58080F20D
:03000000020800F3
:0C080000787FE4F6D8FD758119020847E6
:10080C00020917E493A3F8E493A34003F68001F2E2
:10081C0008DFF48029E493A3F85407240CC8C333ED
:10082C00C4540F4420C8834004F456800146F6DFBC
:10083C00E4800B0102040810204080900900E47E43
:10084C00019360BCA3FF543F30E509541FFEE493B1
:10085C00A360010ECF54C025E060A840B8E493A378
:10086C00FAE493A3F8E493A3C8C582C8CAC583CAA3
:10087C00F0A3C8C582C8CAC583CADFE9DEE780BE5B
:0109160000E0
:00000001FF
