:0A09110008083F065B4F666D7D0786
:0B090600EF1FAC0670011E4C70F622C3
:10088C00EE7053EFB40800504D90089CF828287374
:10089C000208B40208B80208BC0208C00208C4026C
:1008AC0008CC0208D40208DCD2A4800ED2A4801298
:1008BC00D2A48016D2A4801AC2A4D2A3D2A280162B
:1008CC00C2A4D2A3C2A2800EC2A4C2A3D2A280068A
:0E08DC00C2A4C2A3C2A274082FF8E6F58022BF
:1008EA00E4F510F510AF107E0012088C7F6412092F
:0C08FA00060510E510C3940840EB80E4F4
:03000000020800F3
:0C080000787FE4F6D8FD758110020847EF
:10080C000208EAE493A3F8E493A34003F68001F210
:10081C0008DFF48029E493A3F85407240CC8C333ED
:10082C00C4540F4420C8834004F456800146F6DFBC
:10083C00E4800B0102040810204080900911E47E32
:10084C00019360BCA3FF543F30E509541FFEE493B1
:10085C00A360010ECF54C025E060A840B8E493A378
:10086C00FAE493A3F8E493A3C8C582C8CAC583CAA3
:10087C00F0A3C8C582C8CAC583CADFE9DEE780BE5B
:01091B0000DB
:00000001FF
