:0409100002080001D8
:0B090500EF1FAC0670011E4C70F622C4
:10088C00EF6006750800750901E5096401450870FB
:10089C003730B10930B00630B20320B32B7F107E55
:1008AC0027120905E4F508F50920B104FE7F0122A1
:1008BC0020B0057E007F022220B2057E007F03223D
:1008CC0020B31A7E007F042230B11230B00F30B248
:0D08DC000C30B309750800750901E4FEFF3A
:0108E90022EC
:1008EA00E4FF12088CBF0102B2A0BF0202B2A1BF8C
:0B08FA000302B2A2BF04E9B2A380E534
:03000000020800F3
:0C080000787FE4F6D8FD758109020847F6
:10080C000208EAE493A3F8E493A34003F68001F210
:10081C0008DFF48029E493A3F85407240CC8C333ED
:10082C00C4540F4420C8834004F456800146F6DFBC
:10083C00E4800B0102040810204080900910E47E33
:10084C00019360BCA3FF543F30E509541FFEE493B1
:10085C00A360010ECF54C025E060A840B8E493A378
:10086C00FAE493A3F8E493A3C8C582C8CAC583CAA3
:10087C00F0A3C8C582C8CAC583CADFE9DEE780BE5B
:0109140000E2
:00000001FF
